{
  "contractName": "MedicalChain",
  "abi": [
    {
      "inputs": [],
      "payable": false,
      "stateMutability": "nonpayable",
      "type": "constructor",
      "signature": "constructor"
    },
    {
      "anonymous": false,
      "inputs": [
        {
          "indexed": false,
          "name": "admin",
          "type": "address"
        },
        {
          "indexed": false,
          "name": "doctor",
          "type": "address"
        }
      ],
      "name": "DrDetailsAdded",
      "type": "event",
      "signature": "0x83c041d3aeb1dcb1f28cb15e20bdfee5ed1ca3740e487f9cab72e13eeb859505"
    },
    {
      "anonymous": false,
      "inputs": [
        {
          "indexed": false,
          "name": "dr",
          "type": "address"
        },
        {
          "indexed": false,
          "name": "patient",
          "type": "address"
        }
      ],
      "name": "HealthRecordsAdded",
      "type": "event",
      "signature": "0xfd09d3da0077a9ed9d4af05531b2f844c840c94c1e6535e3d2a09a6ae1aa9a52"
    },
    {
      "anonymous": false,
      "inputs": [
        {
          "indexed": false,
          "name": "dr",
          "type": "address"
        },
        {
          "indexed": false,
          "name": "patient",
          "type": "address"
        }
      ],
      "name": "GrantAccessToDr",
      "type": "event",
      "signature": "0x19dd02d0615ff9058c55159271b51d3d8ead87b40cc392e6dbeca6483cff3333"
    },
    {
      "constant": false,
      "inputs": [
        {
          "name": "_state",
          "type": "bool"
        },
        {
          "name": "_drId",
          "type": "address"
        },
        {
          "name": "_name",
          "type": "string"
        }
      ],
      "name": "setDoctorDetails",
      "outputs": [],
      "payable": false,
      "stateMutability": "nonpayable",
      "type": "function",
      "signature": "0x80cfed0e"
    },
    {
      "constant": true,
      "inputs": [
        {
          "name": "_Id",
          "type": "address"
        }
      ],
      "name": "getDoctorDetails",
      "outputs": [
        {
          "name": "_state",
          "type": "bool"
        },
        {
          "name": "_drId",
          "type": "address"
        },
        {
          "name": "_name",
          "type": "string"
        }
      ],
      "payable": false,
      "stateMutability": "view",
      "type": "function",
      "signature": "0xbab90dbd"
    },
    {
      "constant": false,
      "inputs": [
        {
          "name": "_paName",
          "type": "string"
        },
        {
          "name": "_paId",
          "type": "address"
        },
        {
          "name": "_prescription",
          "type": "string"
        }
      ],
      "name": "setHealthRecordsDetails",
      "outputs": [],
      "payable": false,
      "stateMutability": "nonpayable",
      "type": "function",
      "signature": "0xc88f22a9"
    },
    {
      "constant": false,
      "inputs": [
        {
          "name": "_state",
          "type": "bool"
        },
        {
          "name": "_paId",
          "type": "address"
        },
        {
          "name": "_paName",
          "type": "string"
        },
        {
          "name": "_paRecords",
          "type": "string[]"
        }
      ],
      "name": "setPatientDetails",
      "outputs": [],
      "payable": false,
      "stateMutability": "nonpayable",
      "type": "function",
      "signature": "0x71f61bfa"
    },
    {
      "constant": true,
      "inputs": [
        {
          "name": "_Id",
          "type": "address"
        }
      ],
      "name": "getPatientDetails",
      "outputs": [
        {
          "name": "_state",
          "type": "bool"
        },
        {
          "name": "_paId",
          "type": "address"
        },
        {
          "name": "_paName",
          "type": "string"
        },
        {
          "name": "_paRecords",
          "type": "string[]"
        }
      ],
      "payable": false,
      "stateMutability": "view",
      "type": "function",
      "signature": "0xefe2ccc1"
    },
    {
      "constant": true,
      "inputs": [
        {
          "name": "_dr",
          "type": "address"
        }
      ],
      "name": "getHealthRecords",
      "outputs": [
        {
          "name": "_drName",
          "type": "string"
        },
        {
          "name": "_drId",
          "type": "address"
        },
        {
          "name": "_paName",
          "type": "string"
        },
        {
          "name": "_paId",
          "type": "address"
        },
        {
          "name": "_prescription",
          "type": "string"
        },
        {
          "name": "_rec",
          "type": "string[]"
        }
      ],
      "payable": false,
      "stateMutability": "view",
      "type": "function",
      "signature": "0x7827c01a"
    },
    {
      "constant": false,
      "inputs": [
        {
          "name": "doctor_id",
          "type": "address"
        },
        {
          "name": "access",
          "type": "uint256"
        }
      ],
      "name": "grantAccessToDoctor",
      "outputs": [],
      "payable": false,
      "stateMutability": "nonpayable",
      "type": "function",
      "signature": "0x506f1773"
    },
    {
      "constant": true,
      "inputs": [
        {
          "name": "_paId",
          "type": "address"
        }
      ],
      "name": "getHealthRecordsForDoctor",
      "outputs": [
        {
          "name": "_drName",
          "type": "string"
        },
        {
          "name": "_drId",
          "type": "address"
        },
        {
          "name": "_paName",
          "type": "string"
        },
        {
          "name": "_pId",
          "type": "address"
        },
        {
          "name": "_prescription",
          "type": "string"
        },
        {
          "name": "_rec",
          "type": "string[]"
        }
      ],
      "payable": false,
      "stateMutability": "view",
      "type": "function",
      "signature": "0xf83009ba"
    }
  ],
  "bytecode": "0x608060405234801561001057600080fd5b5033600460006101000a81548173ffffffffffffffffffffffffffffffffffffffff021916908373ffffffffffffffffffffffffffffffffffffffff160217905550613166806100616000396000f3fe60806040526004361061008e576000357c0100000000000000000000000000000000000000000000000000000000900463ffffffff168063506f17731461009357806371f61bfa146100bc5780637827c01a146100e557806380cfed0e14610127578063bab90dbd14610150578063c88f22a91461018f578063efe2ccc1146101b8578063f83009ba146101f8575b600080fd5b34801561009f57600080fd5b506100ba60048036036100b59190810190612960565b61023a565b005b3480156100c857600080fd5b506100e360048036036100de9190810190612a03565b610390565b005b3480156100f157600080fd5b5061010c60048036036101079190810190612937565b61054a565b60405161011e96959493929190612e38565b60405180910390f35b34801561013357600080fd5b5061014e6004803603610149919081019061299c565b610bf8565b005b34801561015c57600080fd5b5061017760048036036101729190810190612937565b610dc1565b60405161018693929190612da7565b60405180910390f35b34801561019b57600080fd5b506101b660048036036101b19190810190612a96565b610ff0565b005b3480156101c457600080fd5b506101df60048036036101da9190810190612937565b611a07565b6040516101ef9493929190612de5565b60405180910390f35b34801561020457600080fd5b5061021f600480360361021a9190810190612937565b611deb565b60405161023196959493929190612e38565b60405180910390f35b60011515600160003373ffffffffffffffffffffffffffffffffffffffff1673ffffffffffffffffffffffffffffffffffffffff16815260200190815260200160002060000160009054906101000a900460ff1615151415156102d2576040517f08c379a00000000000000000000000000000000000000000000000000000000081526004016102c990612eb5565b60405180910390fd5b80600360003373ffffffffffffffffffffffffffffffffffffffff1673ffffffffffffffffffffffffffffffffffffffff16815260200190815260200160002060008473ffffffffffffffffffffffffffffffffffffffff1673ffffffffffffffffffffffffffffffffffffffff168152602001908152602001600020819055507f19dd02d0615ff9058c55159271b51d3d8ead87b40cc392e6dbeca6483cff33338233604051610384929190612d7e565b60405180910390a15050565b600115156000803373ffffffffffffffffffffffffffffffffffffffff1673ffffffffffffffffffffffffffffffffffffffff16815260200190815260200160002060000160009054906101000a900460ff161515141515610427576040517f08c379a000000000000000000000000000000000000000000000000000000000815260040161041e90612f15565b60405180910390fd5b60806040519081016040528085151581526020018473ffffffffffffffffffffffffffffffffffffffff16815260200183815260200182815250600160008573ffffffffffffffffffffffffffffffffffffffff1673ffffffffffffffffffffffffffffffffffffffff16815260200190815260200160002060008201518160000160006101000a81548160ff02191690831515021790555060208201518160000160016101000a81548173ffffffffffffffffffffffffffffffffffffffff021916908373ffffffffffffffffffffffffffffffffffffffff1602179055506040820151816001019080519060200190610523929190612559565b5060608201518160020190805190602001906105409291906125d9565b5090505050505050565b606060006060600060608060011515600160003373ffffffffffffffffffffffffffffffffffffffff1673ffffffffffffffffffffffffffffffffffffffff16815260200190815260200160002060000160009054906101000a900460ff1615151415156105ed576040517f08c379a00000000000000000000000000000000000000000000000000000000081526004016105e490612eb5565b60405180910390fd5b600260008873ffffffffffffffffffffffffffffffffffffffff1673ffffffffffffffffffffffffffffffffffffffff16815260200190815260200160002060003373ffffffffffffffffffffffffffffffffffffffff1673ffffffffffffffffffffffffffffffffffffffff1681526020019081526020016000206000016001018054600181600116156101000203166002900480601f0160208091040260200160405190810160405280929190818152602001828054600181600116156101000203166002900480156107035780601f106106d857610100808354040283529160200191610703565b820191906000526020600020905b8154815290600101906020018083116106e657829003601f168201915b50505050509550600260008873ffffffffffffffffffffffffffffffffffffffff1673ffffffffffffffffffffffffffffffffffffffff16815260200190815260200160002060003373ffffffffffffffffffffffffffffffffffffffff1673ffffffffffffffffffffffffffffffffffffffff16815260200190815260200160002060000160000160019054906101000a900473ffffffffffffffffffffffffffffffffffffffff169450600260008873ffffffffffffffffffffffffffffffffffffffff1673ffffffffffffffffffffffffffffffffffffffff16815260200190815260200160002060003373ffffffffffffffffffffffffffffffffffffffff1673ffffffffffffffffffffffffffffffffffffffff1681526020019081526020016000206002016001018054600181600116156101000203166002900480601f0160208091040260200160405190810160405280929190818152602001828054600181600116156101000203166002900480156108c55780601f1061089a576101008083540402835291602001916108c5565b820191906000526020600020905b8154815290600101906020018083116108a857829003601f168201915b50505050509350600260008873ffffffffffffffffffffffffffffffffffffffff1673ffffffffffffffffffffffffffffffffffffffff16815260200190815260200160002060003373ffffffffffffffffffffffffffffffffffffffff1673ffffffffffffffffffffffffffffffffffffffff16815260200190815260200160002060020160000160019054906101000a900473ffffffffffffffffffffffffffffffffffffffff169250600260008873ffffffffffffffffffffffffffffffffffffffff1673ffffffffffffffffffffffffffffffffffffffff16815260200190815260200160002060003373ffffffffffffffffffffffffffffffffffffffff1673ffffffffffffffffffffffffffffffffffffffff1681526020019081526020016000206005016000018054600181600116156101000203166002900480601f016020809104026020016040519081016040528092919081815260200182805460018160011615610100020316600290048015610a875780601f10610a5c57610100808354040283529160200191610a87565b820191906000526020600020905b815481529060010190602001808311610a6a57829003601f168201915b50505050509150600260008873ffffffffffffffffffffffffffffffffffffffff1673ffffffffffffffffffffffffffffffffffffffff16815260200190815260200160002060003373ffffffffffffffffffffffffffffffffffffffff1673ffffffffffffffffffffffffffffffffffffffff168152602001908152602001600020600601805480602002602001604051908101604052809291908181526020016000905b82821015610be9578382906000526020600020018054600181600116156101000203166002900480601f016020809104026020016040519081016040528092919081815260200182805460018160011615610100020316600290048015610bd55780601f10610baa57610100808354040283529160200191610bd5565b820191906000526020600020905b815481529060010190602001808311610bb857829003601f168201915b505050505081526020019060010190610b2d565b50505050905091939550919395565b600460009054906101000a900473ffffffffffffffffffffffffffffffffffffffff1673ffffffffffffffffffffffffffffffffffffffff163373ffffffffffffffffffffffffffffffffffffffff16141515610c8a576040517f08c379a0000000000000000000000000000000000000000000000000000000008152600401610c8190612ef5565b60405180910390fd5b60606040519081016040528084151581526020018373ffffffffffffffffffffffffffffffffffffffff168152602001828152506000808473ffffffffffffffffffffffffffffffffffffffff1673ffffffffffffffffffffffffffffffffffffffff16815260200190815260200160002060008201518160000160006101000a81548160ff02191690831515021790555060208201518160000160016101000a81548173ffffffffffffffffffffffffffffffffffffffff021916908373ffffffffffffffffffffffffffffffffffffffff1602179055506040820151816001019080519060200190610d7f929190612559565b509050507f83c041d3aeb1dcb1f28cb15e20bdfee5ed1ca3740e487f9cab72e13eeb8595053383604051610db4929190612d55565b60405180910390a1505050565b6000806060600460009054906101000a900473ffffffffffffffffffffffffffffffffffffffff1673ffffffffffffffffffffffffffffffffffffffff163373ffffffffffffffffffffffffffffffffffffffff16141515610e58576040517f08c379a0000000000000000000000000000000000000000000000000000000008152600401610e4f90612ef5565b60405180910390fd5b6000808573ffffffffffffffffffffffffffffffffffffffff1673ffffffffffffffffffffffffffffffffffffffff16815260200190815260200160002060000160009054906101000a900460ff1692506000808573ffffffffffffffffffffffffffffffffffffffff1673ffffffffffffffffffffffffffffffffffffffff16815260200190815260200160002060000160019054906101000a900473ffffffffffffffffffffffffffffffffffffffff1691506000808573ffffffffffffffffffffffffffffffffffffffff1673ffffffffffffffffffffffffffffffffffffffff1681526020019081526020016000206001018054600181600116156101000203166002900480601f016020809104026020016040519081016040528092919081815260200182805460018160011615610100020316600290048015610fe25780601f10610fb757610100808354040283529160200191610fe2565b820191906000526020600020905b815481529060010190602001808311610fc557829003601f168201915b505050505090509193909250565b600115156000803373ffffffffffffffffffffffffffffffffffffffff1673ffffffffffffffffffffffffffffffffffffffff16815260200190815260200160002060000160009054906101000a900460ff161515141515611087576040517f08c379a000000000000000000000000000000000000000000000000000000000815260040161107e90612f15565b60405180910390fd5b6000803373ffffffffffffffffffffffffffffffffffffffff1673ffffffffffffffffffffffffffffffffffffffff168152602001908152602001600020600101600260003373ffffffffffffffffffffffffffffffffffffffff1673ffffffffffffffffffffffffffffffffffffffff16815260200190815260200160002060008473ffffffffffffffffffffffffffffffffffffffff1673ffffffffffffffffffffffffffffffffffffffff1681526020019081526020016000206000016001019080546001816001161561010002031660029004611169929190612639565b506000803373ffffffffffffffffffffffffffffffffffffffff1673ffffffffffffffffffffffffffffffffffffffff16815260200190815260200160002060000160019054906101000a900473ffffffffffffffffffffffffffffffffffffffff16600260003373ffffffffffffffffffffffffffffffffffffffff1673ffffffffffffffffffffffffffffffffffffffff16815260200190815260200160002060008473ffffffffffffffffffffffffffffffffffffffff1673ffffffffffffffffffffffffffffffffffffffff16815260200190815260200160002060000160000160016101000a81548173ffffffffffffffffffffffffffffffffffffffff021916908373ffffffffffffffffffffffffffffffffffffffff1602179055506001600260003373ffffffffffffffffffffffffffffffffffffffff1673ffffffffffffffffffffffffffffffffffffffff16815260200190815260200160002060008473ffffffffffffffffffffffffffffffffffffffff1673ffffffffffffffffffffffffffffffffffffffff16815260200190815260200160002060020160000160006101000a81548160ff02191690831515021790555081600260003373ffffffffffffffffffffffffffffffffffffffff1673ffffffffffffffffffffffffffffffffffffffff16815260200190815260200160002060008473ffffffffffffffffffffffffffffffffffffffff1673ffffffffffffffffffffffffffffffffffffffff16815260200190815260200160002060020160000160016101000a81548173ffffffffffffffffffffffffffffffffffffffff021916908373ffffffffffffffffffffffffffffffffffffffff16021790555082600260003373ffffffffffffffffffffffffffffffffffffffff1673ffffffffffffffffffffffffffffffffffffffff16815260200190815260200160002060008473ffffffffffffffffffffffffffffffffffffffff1673ffffffffffffffffffffffffffffffffffffffff168152602001908152602001600020600201600101908051906020019061147e9291906126c0565b5080600260003373ffffffffffffffffffffffffffffffffffffffff1673ffffffffffffffffffffffffffffffffffffffff16815260200190815260200160002060008473ffffffffffffffffffffffffffffffffffffffff1673ffffffffffffffffffffffffffffffffffffffff16815260200190815260200160002060050160000190805190602001906115159291906126c0565b50600260003373ffffffffffffffffffffffffffffffffffffffff1673ffffffffffffffffffffffffffffffffffffffff16815260200190815260200160002060008373ffffffffffffffffffffffffffffffffffffffff1673ffffffffffffffffffffffffffffffffffffffff1681526020019081526020016000206006018190806001815401808255809150509060018203906000526020600020016000909192909190915090805190602001906115d09291906126c0565b5050600160008373ffffffffffffffffffffffffffffffffffffffff1673ffffffffffffffffffffffffffffffffffffffff16815260200190815260200160002060020181908060018154018082558091505090600182039060005260206000200160009091929091909150908051906020019061164f9291906126c0565b50506119c9600260003373ffffffffffffffffffffffffffffffffffffffff1673ffffffffffffffffffffffffffffffffffffffff16815260200190815260200160002060008473ffffffffffffffffffffffffffffffffffffffff1673ffffffffffffffffffffffffffffffffffffffff16815260200190815260200160002060020160000160009054906101000a900460ff16600260003373ffffffffffffffffffffffffffffffffffffffff1673ffffffffffffffffffffffffffffffffffffffff16815260200190815260200160002060008573ffffffffffffffffffffffffffffffffffffffff1673ffffffffffffffffffffffffffffffffffffffff16815260200190815260200160002060020160000160019054906101000a900473ffffffffffffffffffffffffffffffffffffffff16600260003373ffffffffffffffffffffffffffffffffffffffff1673ffffffffffffffffffffffffffffffffffffffff16815260200190815260200160002060008673ffffffffffffffffffffffffffffffffffffffff1673ffffffffffffffffffffffffffffffffffffffff1681526020019081526020016000206002016001018054600181600116156101000203166002900480601f01602080910402602001604051908101604052809291908181526020018280546001816001161561010002031660029004801561189d5780601f106118725761010080835404028352916020019161189d565b820191906000526020600020905b81548152906001019060200180831161188057829003601f168201915b5050505050600160008773ffffffffffffffffffffffffffffffffffffffff1673ffffffffffffffffffffffffffffffffffffffff168152602001908152602001600020600201805480602002602001604051908101604052809291908181526020016000905b828210156119c0578382906000526020600020018054600181600116156101000203166002900480601f0160208091040260200160405190810160405280929190818152602001828054600181600116156101000203166002900480156119ac5780601f10611981576101008083540402835291602001916119ac565b820191906000526020600020905b81548152906001019060200180831161198f57829003601f168201915b505050505081526020019060010190611904565b50505050610390565b7ffd09d3da0077a9ed9d4af05531b2f844c840c94c1e6535e3d2a09a6ae1aa9a5233836040516119fa929190612d55565b60405180910390a1505050565b60008060608060011515600160003373ffffffffffffffffffffffffffffffffffffffff1673ffffffffffffffffffffffffffffffffffffffff16815260200190815260200160002060000160009054906101000a900460ff1615151480611aeb57506001600360008773ffffffffffffffffffffffffffffffffffffffff1673ffffffffffffffffffffffffffffffffffffffff16815260200190815260200160002060003373ffffffffffffffffffffffffffffffffffffffff1673ffffffffffffffffffffffffffffffffffffffff16815260200190815260200160002054145b1515611b2c576040517f08c379a0000000000000000000000000000000000000000000000000000000008152600401611b2390612ed5565b60405180910390fd5b600160008673ffffffffffffffffffffffffffffffffffffffff1673ffffffffffffffffffffffffffffffffffffffff16815260200190815260200160002060000160009054906101000a900460ff169350600160008673ffffffffffffffffffffffffffffffffffffffff1673ffffffffffffffffffffffffffffffffffffffff16815260200190815260200160002060000160019054906101000a900473ffffffffffffffffffffffffffffffffffffffff169250600160008673ffffffffffffffffffffffffffffffffffffffff1673ffffffffffffffffffffffffffffffffffffffff1681526020019081526020016000206001018054600181600116156101000203166002900480601f016020809104026020016040519081016040528092919081815260200182805460018160011615610100020316600290048015611cb95780601f10611c8e57610100808354040283529160200191611cb9565b820191906000526020600020905b815481529060010190602001808311611c9c57829003601f168201915b50505050509150600160008673ffffffffffffffffffffffffffffffffffffffff1673ffffffffffffffffffffffffffffffffffffffff168152602001908152602001600020600201805480602002602001604051908101604052809291908181526020016000905b82821015611dde578382906000526020600020018054600181600116156101000203166002900480601f016020809104026020016040519081016040528092919081815260200182805460018160011615610100020316600290048015611dca5780601f10611d9f57610100808354040283529160200191611dca565b820191906000526020600020905b815481529060010190602001808311611dad57829003601f168201915b505050505081526020019060010190611d22565b5050505090509193509193565b6060600060606000606080600115156000803373ffffffffffffffffffffffffffffffffffffffff1673ffffffffffffffffffffffffffffffffffffffff16815260200190815260200160002060000160009054906101000a900460ff161515141515611e8d576040517f08c379a0000000000000000000000000000000000000000000000000000000008152600401611e8490612f15565b60405180910390fd5b6001600360008973ffffffffffffffffffffffffffffffffffffffff1673ffffffffffffffffffffffffffffffffffffffff16815260200190815260200160002060003373ffffffffffffffffffffffffffffffffffffffff1673ffffffffffffffffffffffffffffffffffffffff16815260200190815260200160002054141515611f4e576040517f08c379a0000000000000000000000000000000000000000000000000000000008152600401611f4590612f35565b60405180910390fd5b600260003373ffffffffffffffffffffffffffffffffffffffff1673ffffffffffffffffffffffffffffffffffffffff16815260200190815260200160002060008873ffffffffffffffffffffffffffffffffffffffff1673ffffffffffffffffffffffffffffffffffffffff1681526020019081526020016000206000016001018054600181600116156101000203166002900480601f0160208091040260200160405190810160405280929190818152602001828054600181600116156101000203166002900480156120645780601f1061203957610100808354040283529160200191612064565b820191906000526020600020905b81548152906001019060200180831161204757829003601f168201915b50505050509550600260003373ffffffffffffffffffffffffffffffffffffffff1673ffffffffffffffffffffffffffffffffffffffff16815260200190815260200160002060008873ffffffffffffffffffffffffffffffffffffffff1673ffffffffffffffffffffffffffffffffffffffff16815260200190815260200160002060000160000160019054906101000a900473ffffffffffffffffffffffffffffffffffffffff169450600260003373ffffffffffffffffffffffffffffffffffffffff1673ffffffffffffffffffffffffffffffffffffffff16815260200190815260200160002060008873ffffffffffffffffffffffffffffffffffffffff1673ffffffffffffffffffffffffffffffffffffffff1681526020019081526020016000206002016001018054600181600116156101000203166002900480601f0160208091040260200160405190810160405280929190818152602001828054600181600116156101000203166002900480156122265780601f106121fb57610100808354040283529160200191612226565b820191906000526020600020905b81548152906001019060200180831161220957829003601f168201915b50505050509350600260003373ffffffffffffffffffffffffffffffffffffffff1673ffffffffffffffffffffffffffffffffffffffff16815260200190815260200160002060008873ffffffffffffffffffffffffffffffffffffffff1673ffffffffffffffffffffffffffffffffffffffff16815260200190815260200160002060020160000160019054906101000a900473ffffffffffffffffffffffffffffffffffffffff169250600260003373ffffffffffffffffffffffffffffffffffffffff1673ffffffffffffffffffffffffffffffffffffffff16815260200190815260200160002060008873ffffffffffffffffffffffffffffffffffffffff1673ffffffffffffffffffffffffffffffffffffffff1681526020019081526020016000206005016000018054600181600116156101000203166002900480601f0160208091040260200160405190810160405280929190818152602001828054600181600116156101000203166002900480156123e85780601f106123bd576101008083540402835291602001916123e8565b820191906000526020600020905b8154815290600101906020018083116123cb57829003601f168201915b50505050509150600260003373ffffffffffffffffffffffffffffffffffffffff1673ffffffffffffffffffffffffffffffffffffffff16815260200190815260200160002060008873ffffffffffffffffffffffffffffffffffffffff1673ffffffffffffffffffffffffffffffffffffffff168152602001908152602001600020600601805480602002602001604051908101604052809291908181526020016000905b8282101561254a578382906000526020600020018054600181600116156101000203166002900480601f0160208091040260200160405190810160405280929190818152602001828054600181600116156101000203166002900480156125365780601f1061250b57610100808354040283529160200191612536565b820191906000526020600020905b81548152906001019060200180831161251957829003601f168201915b50505050508152602001906001019061248e565b50505050905091939550919395565b828054600181600116156101000203166002900490600052602060002090601f016020900481019282601f1061259a57805160ff19168380011785556125c8565b828001600101855582156125c8579182015b828111156125c75782518255916020019190600101906125ac565b5b5090506125d59190612740565b5090565b828054828255906000526020600020908101928215612628579160200282015b82811115612627578251829080519060200190612617929190612559565b50916020019190600101906125f9565b5b5090506126359190612765565b5090565b828054600181600116156101000203166002900490600052602060002090601f016020900481019282601f1061267257805485556126af565b828001600101855582156126af57600052602060002091601f016020900482015b828111156126ae578254825591600101919060010190612693565b5b5090506126bc9190612740565b5090565b828054600181600116156101000203166002900490600052602060002090601f016020900481019282601f1061270157805160ff191683800117855561272f565b8280016001018555821561272f579182015b8281111561272e578251825591602001919060010190612713565b5b50905061273c9190612740565b5090565b61276291905b8082111561275e576000816000905550600101612746565b5090565b90565b61278e91905b8082111561278a57600081816127819190612791565b5060010161276b565b5090565b90565b50805460018160011615610100020316600290046000825580601f106127b757506127d6565b601f0160209004906000526020600020908101906127d59190612740565b5b50565b60006127e5823561307b565b905092915050565b600082601f830112151561280057600080fd5b813561281361280e82612f82565b612f55565b9150818183526020840193506020810190508360005b83811015612859578135860161283f8882612877565b845260208401935060208301925050600181019050612829565b5050505092915050565b600061286f823561308d565b905092915050565b600082601f830112151561288a57600080fd5b813561289d61289882612faa565b612f55565b915080825260208301602083018583830111156128b957600080fd5b6128c48382846130d9565b50505092915050565b600082601f83011215156128e057600080fd5b81356128f36128ee82612fd6565b612f55565b9150808252602083016020830185838301111561290f57600080fd5b61291a8382846130d9565b50505092915050565b600061292f8235613099565b905092915050565b60006020828403121561294957600080fd5b6000612957848285016127d9565b91505092915050565b6000806040838503121561297357600080fd5b6000612981858286016127d9565b925050602061299285828601612923565b9150509250929050565b6000806000606084860312156129b157600080fd5b60006129bf86828701612863565b93505060206129d0868287016127d9565b925050604084013567ffffffffffffffff8111156129ed57600080fd5b6129f9868287016128cd565b9150509250925092565b60008060008060808587031215612a1957600080fd5b6000612a2787828801612863565b9450506020612a38878288016127d9565b935050604085013567ffffffffffffffff811115612a5557600080fd5b612a61878288016128cd565b925050606085013567ffffffffffffffff811115612a7e57600080fd5b612a8a878288016127ed565b91505092959194509250565b600080600060608486031215612aab57600080fd5b600084013567ffffffffffffffff811115612ac557600080fd5b612ad1868287016128cd565b9350506020612ae2868287016127d9565b925050604084013567ffffffffffffffff811115612aff57600080fd5b612b0b868287016128cd565b9150509250925092565b612b1e816130a3565b82525050565b612b2d8161303d565b82525050565b6000612b3e8261300f565b80845260208401935083602082028501612b5785613002565b60005b84811015612b90578383038852612b72838351612be6565b9250612b7d82613030565b9150602088019750600181019050612b5a565b508196508694505050505092915050565b612baa8161304f565b82525050565b6000612bbb82613025565b808452612bcf8160208601602086016130e8565b612bd88161311b565b602085010191505092915050565b6000612bf18261301a565b808452612c058160208601602086016130e8565b612c0e8161311b565b602085010191505092915050565b6000601882527f524547495354455245442050415449454e5453204f4e4c5900000000000000006020830152604082019050919050565b6000602782527f50415449454e5453204f52204143434553535f4752414e5445445f444f43544f60208301527f5253204f4e4c59000000000000000000000000000000000000000000000000006040830152606082019050919050565b6000601582527f4f4e4c592041444d494e20495320414c4c4f57454400000000000000000000006020830152604082019050919050565b6000601782527f5245474953544552454420444f43544f5253204f4e4c590000000000000000006020830152604082019050919050565b6000601582527f445220414343455353204e4f54204752414e54454400000000000000000000006020830152604082019050919050565b6000604082019050612d6a6000830185612b15565b612d776020830184612b24565b9392505050565b6000604082019050612d936000830185612b24565b612da06020830184612b15565b9392505050565b6000606082019050612dbc6000830186612ba1565b612dc96020830185612b24565b8181036040830152612ddb8184612bb0565b9050949350505050565b6000608082019050612dfa6000830187612ba1565b612e076020830186612b24565b8181036040830152612e198185612bb0565b90508181036060830152612e2d8184612b33565b905095945050505050565b600060c0820190508181036000830152612e528189612bb0565b9050612e616020830188612b24565b8181036040830152612e738187612bb0565b9050612e826060830186612b24565b8181036080830152612e948185612bb0565b905081810360a0830152612ea88184612b33565b9050979650505050505050565b60006020820190508181036000830152612ece81612c1c565b9050919050565b60006020820190508181036000830152612eee81612c53565b9050919050565b60006020820190508181036000830152612f0e81612cb0565b9050919050565b60006020820190508181036000830152612f2e81612ce7565b9050919050565b60006020820190508181036000830152612f4e81612d1e565b9050919050565b6000604051905081810181811067ffffffffffffffff82111715612f7857600080fd5b8060405250919050565b600067ffffffffffffffff821115612f9957600080fd5b602082029050602081019050919050565b600067ffffffffffffffff821115612fc157600080fd5b601f19601f8301169050602081019050919050565b600067ffffffffffffffff821115612fed57600080fd5b601f19601f8301169050602081019050919050565b6000602082019050919050565b600081519050919050565b600081519050919050565b600081519050919050565b6000602082019050919050565b60006130488261305b565b9050919050565b60008115159050919050565b600073ffffffffffffffffffffffffffffffffffffffff82169050919050565b60006130868261305b565b9050919050565b60008115159050919050565b6000819050919050565b60006130ae826130b5565b9050919050565b60006130c0826130c7565b9050919050565b60006130d28261305b565b9050919050565b82818337600083830152505050565b60005b838110156131065780820151818401526020810190506130eb565b83811115613115576000848401525b50505050565b6000601f19601f830116905091905056fea265627a7a723058200c15597d490ead9d407d21f897f64c6cb7e6e460d44e3d89e8917f1a046ec1466c6578706572696d656e74616cf50037",
  "source": "pragma solidity ^0.5.0;\r\npragma experimental ABIEncoderV2;\r\n\r\ncontract MedicalChain{\r\n\r\n    mapping(address=>Doctor) DoctorInfo;\r\n    mapping(address=>Patient) PatientInfo;\r\n    mapping(address=> mapping(address => HealthRecords)) HealthInfo;\r\n    mapping (address => mapping (address => uint)) private patientToDoctor;\r\n\r\n\r\n\r\n    event DrDetailsAdded(address admin, address doctor);\r\n    event HealthRecordsAdded(address dr, address patient);\r\n    event GrantAccessToDr(address dr, address patient);\r\n\r\n    modifier OnlyOwner(){\r\n        require(msg.sender == owner,\"ONLY ADMIN IS ALLOWED\");\r\n        _;\r\n    }\r\n    \r\n    modifier Only_Doctors{\r\n        require(DoctorInfo[msg.sender].state == true,\"REGISTERED DOCTORS ONLY\");\r\n        _;\r\n    }\r\n    \r\n    modifier Only_Patients{\r\n        require(PatientInfo[msg.sender].state == true,\"REGISTERED PATIENTS ONLY\");\r\n        _;\r\n    }\r\n    \r\n    address owner;\r\n    \r\n    constructor() public{\r\n        owner = msg.sender;\r\n    }\r\n    \r\n    struct Doctor{\r\n        bool state; // To check whether the doctor is registered or not\r\n        address dr_Id; // Address of doctor\r\n        string d_Name; // Name of doctor\r\n    }\r\n    \r\n    struct Patient{\r\n        bool state; // To check whether patient is genuine\r\n        address pa_Id; // Address of registered patient\r\n        string pa_Name; // Name of Patient Name\r\n        string[] pa_Records; // Used to store the prescription records of corresponding patients\r\n    }\r\n    \r\n    struct PrescriptionDetails{\r\n        string prescription; // prescription details of patient given by doctor\r\n    }\r\n    \r\n    struct HealthRecords{\r\n        Doctor d;\r\n        Patient p;\r\n        PrescriptionDetails pre;\r\n        string[] records; // Used to store prescription records of patient w.r.t doctor\r\n    }\r\n    \r\n\r\n    \r\n    // Function to add Doctor details, done by admin only\r\n    function setDoctorDetails(bool _state,address _drId,string memory _name) public OnlyOwner {\r\n        DoctorInfo[_drId] = Doctor(_state,_drId,_name);\r\n        emit DrDetailsAdded(msg.sender, _drId);\r\n    }\r\n    \r\n    \r\n    \r\n    // Function to get Doctor details for admin\r\n    function getDoctorDetails(address _Id) public OnlyOwner view returns(bool _state,address _drId,string memory _name){\r\n        _state = DoctorInfo[_Id].state;\r\n        _drId = DoctorInfo[_Id].dr_Id;\r\n        _name = DoctorInfo[_Id].d_Name;\r\n    }\r\n    \r\n    \r\n    \r\n    // Function to add HealthRecords of patients, done by registered doctors only\r\n    function setHealthRecordsDetails(string memory _paName, address _paId, string memory _prescription) public Only_Doctors{\r\n        \r\n        HealthInfo[msg.sender][_paId].d.d_Name = DoctorInfo[msg.sender].d_Name; \r\n        HealthInfo[msg.sender][_paId].d.dr_Id = DoctorInfo[msg.sender].dr_Id;\r\n        HealthInfo[msg.sender][_paId].p.state = true;\r\n        HealthInfo[msg.sender][_paId].p.pa_Id = _paId;\r\n        HealthInfo[msg.sender][_paId].p.pa_Name = _paName;\r\n        HealthInfo[msg.sender][_paId].pre.prescription = _prescription;\r\n        HealthInfo[msg.sender][_paId].records.push(_prescription);\r\n        PatientInfo[_paId].pa_Records.push(_prescription);\r\n        setPatientDetails(HealthInfo[msg.sender][_paId].p.state,HealthInfo[msg.sender][_paId].p.pa_Id,HealthInfo[msg.sender][_paId].p.pa_Name,PatientInfo[_paId].pa_Records);\r\n        emit HealthRecordsAdded(msg.sender, _paId);\r\n    }\r\n    \r\n    \r\n    \r\n    // Function to add Patient details, done by registered doctors only\r\n    function setPatientDetails(bool _state,address _paId,string memory _paName,string[] memory _paRecords) public Only_Doctors{\r\n        PatientInfo[_paId] = Patient(_state,_paId,_paName,_paRecords);\r\n    }\r\n    \r\n    \r\n    \r\n    // Function to get Patient details\r\n    function getPatientDetails(address _Id) public view returns(bool _state,address _paId,string memory _paName,string[] memory _paRecords){\r\n       require(PatientInfo[msg.sender].state == true || patientToDoctor[_Id][msg.sender] == 1,\"PATIENTS OR ACCESS_GRANTED_DOCTORS ONLY\");\r\n        _state = PatientInfo[_Id].state;\r\n        _paId = PatientInfo[_Id].pa_Id;\r\n        _paName = PatientInfo[_Id].pa_Name;\r\n        _paRecords = PatientInfo[_Id].pa_Records;\r\n        \r\n    }\r\n    \r\n    \r\n    \r\n    // Function to get HealthRecords only for registered patients\r\n    function getHealthRecords(address _dr) Only_Patients public view returns(string memory _drName, address _drId, string memory _paName, address _paId,string memory _prescription,string[] memory _rec) {\r\n        _drName = HealthInfo[_dr][msg.sender].d.d_Name;\r\n        _drId = HealthInfo[_dr][msg.sender].d.dr_Id;\r\n        _paName = HealthInfo[_dr][msg.sender].p.pa_Name;\r\n        _paId = HealthInfo[_dr][msg.sender].p.pa_Id;\r\n        _prescription = HealthInfo[_dr][msg.sender].pre.prescription;\r\n        _rec = HealthInfo[_dr][msg.sender].records;\r\n    }\r\n\r\n\r\n\r\n    // Function to grant access to doctor ,so that the doctors with access can view the corresponding patients HealthRecords\r\n    function grantAccessToDoctor(address doctor_id,uint access) public Only_Patients{\r\n    \tpatientToDoctor[msg.sender][doctor_id] = access;\r\n        emit GrantAccessToDr(doctor_id,msg.sender);\r\n      }\r\n  \t\r\n  \t\r\n  \t\r\n  \t// Function to get HealthRecords only for registered Doctors\r\n  \tfunction getHealthRecordsForDoctor(address _paId) public Only_Doctors view returns(string memory _drName, address _drId, string memory _paName, address _pId,string memory _prescription,string[] memory _rec){\r\n\t\trequire(patientToDoctor[_paId][msg.sender] == 1,\"DR ACCESS NOT GRANTED\");\r\n\t\t_drName = HealthInfo[msg.sender][_paId].d.d_Name;\r\n        _drId = HealthInfo[msg.sender][_paId].d.dr_Id;\r\n        _paName = HealthInfo[msg.sender][_paId].p.pa_Name;\r\n        _pId = HealthInfo[msg.sender][_paId].p.pa_Id; \r\n        _prescription = HealthInfo[msg.sender][_paId].pre.prescription;\r\n        _rec = HealthInfo[msg.sender][_paId].records;\r\n\t}\r\n\r\n}",
  "sourcePath": "E:/17-9 Desktop Data/BITS ME CSE/SEM-3/1 BLKCHN/project 3/Medic-Chain/Medic@Chain/contracts/MedicalChain.sol",
  "compiler": {
    "name": "solc",
    "version": "0.5.0+commit.1d4f565a.Emscripten.clang"
  },
  "schemaVersion": "3.0.1",
  "updatedAt": "2022-12-07T15:01:55.564Z",
  "devdoc": {
    "methods": {}
  },
  "userdoc": {
    "methods": {}
  }
}